{
  "contractName": "EventStake",
  "abi": [
    {
      "inputs": [
        {
          "internalType": "address",
          "name": "_oracle",
          "type": "address"
        }
      ],
      "stateMutability": "nonpayable",
      "type": "constructor"
    },
    {
      "anonymous": false,
      "inputs": [
        {
          "indexed": true,
          "internalType": "address",
          "name": "previousOwner",
          "type": "address"
        },
        {
          "indexed": true,
          "internalType": "address",
          "name": "newOwner",
          "type": "address"
        }
      ],
      "name": "OwnershipTransferred",
      "type": "event"
    },
    {
      "anonymous": false,
      "inputs": [
        {
          "indexed": false,
          "internalType": "uint256",
          "name": "EventId",
          "type": "uint256"
        },
        {
          "indexed": false,
          "internalType": "uint256",
          "name": "atTime",
          "type": "uint256"
        },
        {
          "indexed": true,
          "internalType": "address",
          "name": "creator",
          "type": "address"
        }
      ],
      "name": "newEventCreated",
      "type": "event"
    },
    {
      "inputs": [
        {
          "internalType": "address",
          "name": "_creator",
          "type": "address"
        },
        {
          "internalType": "uint32",
          "name": "_id",
          "type": "uint32"
        },
        {
          "internalType": "uint256",
          "name": "_atTime",
          "type": "uint256"
        },
        {
          "internalType": "uint256",
          "name": "_EventId",
          "type": "uint256"
        }
      ],
      "name": "callback",
      "outputs": [],
      "stateMutability": "nonpayable",
      "type": "function"
    },
    {
      "inputs": [
        {
          "internalType": "uint256",
          "name": "Event",
          "type": "uint256"
        }
      ],
      "name": "distributeAmount",
      "outputs": [
        {
          "internalType": "bool",
          "name": "_success",
          "type": "bool"
        }
      ],
      "stateMutability": "payable",
      "type": "function",
      "payable": true
    },
    {
      "inputs": [],
      "name": "owner",
      "outputs": [
        {
          "internalType": "address",
          "name": "",
          "type": "address"
        }
      ],
      "stateMutability": "view",
      "type": "function",
      "constant": true
    },
    {
      "inputs": [],
      "name": "renounceOwnership",
      "outputs": [],
      "stateMutability": "nonpayable",
      "type": "function"
    },
    {
      "inputs": [
        {
          "internalType": "address",
          "name": "_oracleAddress",
          "type": "address"
        }
      ],
      "name": "setOracleAddress",
      "outputs": [],
      "stateMutability": "nonpayable",
      "type": "function"
    },
    {
      "inputs": [
        {
          "internalType": "address",
          "name": "newOwner",
          "type": "address"
        }
      ],
      "name": "transferOwnership",
      "outputs": [],
      "stateMutability": "nonpayable",
      "type": "function"
    },
    {
      "stateMutability": "payable",
      "type": "receive",
      "payable": true
    },
    {
      "inputs": [
        {
          "internalType": "uint256",
          "name": "_atTime",
          "type": "uint256"
        }
      ],
      "name": "createAnEvent",
      "outputs": [],
      "stateMutability": "payable",
      "type": "function",
      "payable": true
    },
    {
      "inputs": [
        {
          "internalType": "address",
          "name": "referrer",
          "type": "address"
        },
        {
          "internalType": "uint256",
          "name": "Event",
          "type": "uint256"
        }
      ],
      "name": "addMeToEvent",
      "outputs": [],
      "stateMutability": "payable",
      "type": "function",
      "payable": true
    },
    {
      "inputs": [
        {
          "internalType": "uint256",
          "name": "Event",
          "type": "uint256"
        }
      ],
      "name": "selfAffirmation",
      "outputs": [],
      "stateMutability": "nonpayable",
      "type": "function"
    }
  ],
  "bytecode": "0x60806040523480156200001157600080fd5b5060405162002704380380620027048339818101604052810190620000379190620001b1565b6000620000496200019260201b60201c565b9050806000806101000a81548173ffffffffffffffffffffffffffffffffffffffff021916908373ffffffffffffffffffffffffffffffffffffffff1602179055508073ffffffffffffffffffffffffffffffffffffffff16600073ffffffffffffffffffffffffffffffffffffffff167f8be0079c531659141344cd1fd0a4f28419497f9722a3daafe3b4186f6b6457e060405160405180910390a35080600260006101000a81548173ffffffffffffffffffffffffffffffffffffffff021916908373ffffffffffffffffffffffffffffffffffffffff160217905550600260009054906101000a900473ffffffffffffffffffffffffffffffffffffffff16600160006101000a81548173ffffffffffffffffffffffffffffffffffffffff021916908373ffffffffffffffffffffffffffffffffffffffff160217905550506200022b565b600033905090565b600081519050620001ab8162000211565b92915050565b600060208284031215620001c457600080fd5b6000620001d4848285016200019a565b91505092915050565b6000620001ea82620001f1565b9050919050565b600073ffffffffffffffffffffffffffffffffffffffff82169050919050565b6200021c81620001dd565b81146200022857600080fd5b50565b6124c9806200023b6000396000f3fe60806040526004361061008a5760003560e01c806372eda9a61161005957806372eda9a6146101795780638da5cb5b14610195578063b29e2c23146101c0578063f080d873146101dc578063f2fde38b14610205576100db565b80631e271ac0146100e057806341cc0b94146101095780634c69c00f14610139578063715018a614610162576100db565b366100db5766038d7ea4c680003410156100d9576040517f08c379a00000000000000000000000000000000000000000000000000000000081526004016100d0906120b7565b60405180910390fd5b005b600080fd5b3480156100ec57600080fd5b5061010760048036038101906101029190611bf5565b61022e565b005b610123600480360381019061011e9190611c58565b61040a565b604051610130919061207c565b60405180910390f35b34801561014557600080fd5b50610160600480360381019061015b9190611b90565b610e1a565b005b34801561016e57600080fd5b50610177610eda565b005b610193600480360381019061018e9190611c58565b611014565b005b3480156101a157600080fd5b506101aa61114d565b6040516101b79190612061565b60405180910390f35b6101da60048036038101906101d59190611bb9565b611176565b005b3480156101e857600080fd5b5061020360048036038101906101fe9190611c58565b6112df565b005b34801561021157600080fd5b5061022c60048036038101906102279190611b90565b611555565b005b600260009054906101000a900473ffffffffffffffffffffffffffffffffffffffff1673ffffffffffffffffffffffffffffffffffffffff163373ffffffffffffffffffffffffffffffffffffffff16146102be576040517f08c379a00000000000000000000000000000000000000000000000000000000081526004016102b590612137565b60405180910390fd5b600660008463ffffffff1663ffffffff16815260200190815260200160002060009054906101000a900460ff1661032a576040517f08c379a000000000000000000000000000000000000000000000000000000000815260040161032190612177565b60405180910390fd5b610333816116fe565b8160046000838152602001908152602001600020600160028110610380577f4e487b7100000000000000000000000000000000000000000000000000000000600052603260045260246000fd5b01819055508373ffffffffffffffffffffffffffffffffffffffff167f3637a4d02452459e16f9f38701fd7c8fb317ec27d5ddf1c41935040daf90ffde82846040516103cd929190612200565b60405180910390a2600660008463ffffffff1663ffffffff16815260200190815260200160002060006101000a81549060ff021916905550505050565b6000600260009054906101000a900473ffffffffffffffffffffffffffffffffffffffff1673ffffffffffffffffffffffffffffffffffffffff163373ffffffffffffffffffffffffffffffffffffffff161461049c576040517f08c379a000000000000000000000000000000000000000000000000000000000815260040161049390612137565b60405180910390fd5b6000600560008481526020019081526020016000208054905014156104f6576040517f08c379a00000000000000000000000000000000000000000000000000000000081526004016104ed906120f7565b60405180910390fd5b60006005600084815260200190815260200160002080549050905060006004600085815260200190815260200160002060006002811061055f577f4e487b7100000000000000000000000000000000000000000000000000000000600052603260045260246000fd5b015490506105dd6105816403f5476a00622dc6c0611a3390919063ffffffff16565b600460008781526020019081526020016000206000600281106105cd577f4e487b7100000000000000000000000000000000000000000000000000000000600052603260045260246000fd5b0154611a4990919063ffffffff16565b60046000868152602001908152602001600020600060028110610629577f4e487b7100000000000000000000000000000000000000000000000000000000600052603260045260246000fd5b01819055506000805b8381101561087157600280811115610673577f4e487b7100000000000000000000000000000000000000000000000000000000600052602160045260246000fd5b60036000600560008a815260200190815260200160002084815481106106c2577f4e487b7100000000000000000000000000000000000000000000000000000000600052603260045260246000fd5b9060005260206000200160009054906101000a900473ffffffffffffffffffffffffffffffffffffffff1673ffffffffffffffffffffffffffffffffffffffff1673ffffffffffffffffffffffffffffffffffffffff168152602001908152602001600020600088815260200190815260200160002060000160009054906101000a900460ff166002811115610781577f4e487b7100000000000000000000000000000000000000000000000000000000600052602160045260246000fd5b141561085e57600360006005600089815260200190815260200160002083815481106107d6577f4e487b7100000000000000000000000000000000000000000000000000000000600052603260045260246000fd5b9060005260206000200160009054906101000a900473ffffffffffffffffffffffffffffffffffffffff1673ffffffffffffffffffffffffffffffffffffffff1673ffffffffffffffffffffffffffffffffffffffff1681526020019081526020016000206000878152602001908152602001600020600101548261085b919061223a565b91505b8080610869906123a7565b915050610632565b5060005b83811015610d6e57600160028111156108b7577f4e487b7100000000000000000000000000000000000000000000000000000000600052602160045260246000fd5b60036000600560008a81526020019081526020016000208481548110610906577f4e487b7100000000000000000000000000000000000000000000000000000000600052603260045260246000fd5b9060005260206000200160009054906101000a900473ffffffffffffffffffffffffffffffffffffffff1673ffffffffffffffffffffffffffffffffffffffff1673ffffffffffffffffffffffffffffffffffffffff168152602001908152602001600020600088815260200190815260200160002060000160009054906101000a900460ff1660028111156109c5577f4e487b7100000000000000000000000000000000000000000000000000000000600052602160045260246000fd5b1415610c7757600080610abd85610aaf61271060036000600560008f81526020019081526020016000208981548110610a27577f4e487b7100000000000000000000000000000000000000000000000000000000600052603260045260246000fd5b9060005260206000200160009054906101000a900473ffffffffffffffffffffffffffffffffffffffff1673ffffffffffffffffffffffffffffffffffffffff1673ffffffffffffffffffffffffffffffffffffffff16815260200190815260200160002060008d815260200190815260200160002060010154611a3390919063ffffffff16565b611a5f90919063ffffffff16565b9150915081610b01576040517f08c379a0000000000000000000000000000000000000000000000000000000008152600401610af8906121b7565b60405180910390fd5b6000610b2a612710610b1c8785611a3390919063ffffffff16565b611abc90919063ffffffff16565b9050610ba0612710610b92600460008d8152602001908152602001600020600060028110610b81577f4e487b7100000000000000000000000000000000000000000000000000000000600052603260045260246000fd5b015485611a3390919063ffffffff16565b611abc90919063ffffffff16565b9150610bb58183611ad290919063ffffffff16565b9150600560008a81526020019081526020016000208481548110610c02577f4e487b7100000000000000000000000000000000000000000000000000000000600052603260045260246000fd5b9060005260206000200160009054906101000a900473ffffffffffffffffffffffffffffffffffffffff1673ffffffffffffffffffffffffffffffffffffffff166108fc839081150290604051600060405180830381858888f19350505050158015610c72573d6000803e3d6000fd5b505050505b60036000600560008981526020019081526020016000208381548110610cc6577f4e487b7100000000000000000000000000000000000000000000000000000000600052603260045260246000fd5b9060005260206000200160009054906101000a900473ffffffffffffffffffffffffffffffffffffffff1673ffffffffffffffffffffffffffffffffffffffff1673ffffffffffffffffffffffffffffffffffffffff1681526020019081526020016000206000878152602001908152602001600020600080820160006101000a81549060ff0219169055600182016000905550508080610d66906123a7565b915050610875565b503373ffffffffffffffffffffffffffffffffffffffff166108fc610da46403f5476a00622dc6c0611a3390919063ffffffff16565b9081150290604051600060405180830381858888f19350505050158015610dcf573d6000803e3d6000fd5b50600560008681526020019081526020016000206000610def9190611af0565b600460008681526020019081526020016000206000610e0e9190611b11565b60019350505050919050565b610e22611ae8565b73ffffffffffffffffffffffffffffffffffffffff16610e4061114d565b73ffffffffffffffffffffffffffffffffffffffff1614610e96576040517f08c379a0000000000000000000000000000000000000000000000000000000008152600401610e8d90612117565b60405180910390fd5b80600260006101000a81548173ffffffffffffffffffffffffffffffffffffffff021916908373ffffffffffffffffffffffffffffffffffffffff16021790555050565b610ee2611ae8565b73ffffffffffffffffffffffffffffffffffffffff16610f0061114d565b73ffffffffffffffffffffffffffffffffffffffff1614610f56576040517f08c379a0000000000000000000000000000000000000000000000000000000008152600401610f4d90612117565b60405180910390fd5b600073ffffffffffffffffffffffffffffffffffffffff1660008054906101000a900473ffffffffffffffffffffffffffffffffffffffff1673ffffffffffffffffffffffffffffffffffffffff167f8be0079c531659141344cd1fd0a4f28419497f9722a3daafe3b4186f6b6457e060405160405180910390a360008060006101000a81548173ffffffffffffffffffffffffffffffffffffffff021916908373ffffffffffffffffffffffffffffffffffffffff160217905550565b66038d7ea4c6800034101561105e576040517f08c379a0000000000000000000000000000000000000000000000000000000008152600401611055906120b7565b60405180910390fd5b6000600160009054906101000a900473ffffffffffffffffffffffffffffffffffffffff1673ffffffffffffffffffffffffffffffffffffffff1663e5dd424383336040518363ffffffff1660e01b81526004016110bd9291906121d7565b602060405180830381600087803b1580156110d757600080fd5b505af11580156110eb573d6000803e3d6000fd5b505050506040513d601f19601f8201168201806040525081019061110f9190611c81565b90506001600660008363ffffffff1663ffffffff16815260200190815260200160002060006101000a81548160ff0219169083151502179055505050565b60008060009054906101000a900473ffffffffffffffffffffffffffffffffffffffff16905090565b66038d7ea4c680003410156111c0576040517f08c379a00000000000000000000000000000000000000000000000000000000081526004016111b7906120b7565b60405180910390fd5b6002808111156111f9577f4e487b7100000000000000000000000000000000000000000000000000000000600052602160045260246000fd5b600360008473ffffffffffffffffffffffffffffffffffffffff1673ffffffffffffffffffffffffffffffffffffffff168152602001908152602001600020600083815260200190815260200160002060000160009054906101000a900460ff166002811115611292577f4e487b7100000000000000000000000000000000000000000000000000000000600052602160045260246000fd5b146112d2576040517f08c379a00000000000000000000000000000000000000000000000000000000081526004016112c990612197565b60405180910390fd5b6112db816116fe565b5050565b600280811115611318577f4e487b7100000000000000000000000000000000000000000000000000000000600052602160045260246000fd5b600360003373ffffffffffffffffffffffffffffffffffffffff1673ffffffffffffffffffffffffffffffffffffffff168152602001908152602001600020600083815260200190815260200160002060000160009054906101000a900460ff1660028111156113b1577f4e487b7100000000000000000000000000000000000000000000000000000000600052602160045260246000fd5b14801561140b575060046000828152602001908152602001600020600160028110611405577f4e487b7100000000000000000000000000000000000000000000000000000000600052603260045260246000fd5b01544210155b80156114715750610e1060046000838152602001908152602001600020600160028110611461577f4e487b7100000000000000000000000000000000000000000000000000000000600052603260045260246000fd5b015461146d919061223a565b4211155b6114b0576040517f08c379a00000000000000000000000000000000000000000000000000000000081526004016114a7906120d7565b60405180910390fd5b6001600360003373ffffffffffffffffffffffffffffffffffffffff1673ffffffffffffffffffffffffffffffffffffffff168152602001908152602001600020600083815260200190815260200160002060000160006101000a81548160ff0219169083600281111561154d577f4e487b7100000000000000000000000000000000000000000000000000000000600052602160045260246000fd5b021790555050565b61155d611ae8565b73ffffffffffffffffffffffffffffffffffffffff1661157b61114d565b73ffffffffffffffffffffffffffffffffffffffff16146115d1576040517f08c379a00000000000000000000000000000000000000000000000000000000081526004016115c890612117565b60405180910390fd5b600073ffffffffffffffffffffffffffffffffffffffff168173ffffffffffffffffffffffffffffffffffffffff161415611641576040517f08c379a000000000000000000000000000000000000000000000000000000000815260040161163890612097565b60405180910390fd5b8073ffffffffffffffffffffffffffffffffffffffff1660008054906101000a900473ffffffffffffffffffffffffffffffffffffffff1673ffffffffffffffffffffffffffffffffffffffff167f8be0079c531659141344cd1fd0a4f28419497f9722a3daafe3b4186f6b6457e060405160405180910390a3806000806101000a81548173ffffffffffffffffffffffffffffffffffffffff021916908373ffffffffffffffffffffffffffffffffffffffff16021790555050565b60006002811115611738577f4e487b7100000000000000000000000000000000000000000000000000000000600052602160045260246000fd5b600360003373ffffffffffffffffffffffffffffffffffffffff1673ffffffffffffffffffffffffffffffffffffffff168152602001908152602001600020600083815260200190815260200160002060000160009054906101000a900460ff1660028111156117d1577f4e487b7100000000000000000000000000000000000000000000000000000000600052602160045260246000fd5b14611811576040517f08c379a000000000000000000000000000000000000000000000000000000000815260040161180890612157565b60405180910390fd5b6002600360003373ffffffffffffffffffffffffffffffffffffffff1673ffffffffffffffffffffffffffffffffffffffff168152602001908152602001600020600083815260200190815260200160002060000160006101000a81548160ff021916908360028111156118ae577f4e487b7100000000000000000000000000000000000000000000000000000000600052602160045260246000fd5b02179055506119133460046000848152602001908152602001600020600060028110611903577f4e487b7100000000000000000000000000000000000000000000000000000000600052603260045260246000fd5b0154611ad290919063ffffffff16565b6004600083815260200190815260200160002060006002811061195f577f4e487b7100000000000000000000000000000000000000000000000000000000600052603260045260246000fd5b018190555060056000828152602001908152602001600020339080600181540180825580915050600190039060005260206000200160009091909190916101000a81548173ffffffffffffffffffffffffffffffffffffffff021916908373ffffffffffffffffffffffffffffffffffffffff16021790555034600360003373ffffffffffffffffffffffffffffffffffffffff1673ffffffffffffffffffffffffffffffffffffffff16815260200190815260200160002060008381526020019081526020016000206001018190555050565b60008183611a4191906122c1565b905092915050565b60008183611a57919061231b565b905092915050565b6000806000831415611a775760008091509150611ab5565b6001838581611aaf577f4e487b7100000000000000000000000000000000000000000000000000000000600052601260045260246000fd5b04915091505b9250929050565b60008183611aca9190612290565b905092915050565b60008183611ae0919061223a565b905092915050565b600033905090565b5080546000825590600052602060002090810190611b0e9190611b1f565b50565b506000815560010160009055565b5b80821115611b38576000816000905550600101611b20565b5090565b600081359050611b4b8161244e565b92915050565b600081359050611b6081612465565b92915050565b600081359050611b758161247c565b92915050565b600081519050611b8a8161247c565b92915050565b600060208284031215611ba257600080fd5b6000611bb084828501611b3c565b91505092915050565b60008060408385031215611bcc57600080fd5b6000611bda85828601611b3c565b9250506020611beb85828601611b51565b9150509250929050565b60008060008060808587031215611c0b57600080fd5b6000611c1987828801611b3c565b9450506020611c2a87828801611b66565b9350506040611c3b87828801611b51565b9250506060611c4c87828801611b51565b91505092959194509250565b600060208284031215611c6a57600080fd5b6000611c7884828501611b51565b91505092915050565b600060208284031215611c9357600080fd5b6000611ca184828501611b7b565b91505092915050565b611cb38161234f565b82525050565b611cc281612361565b82525050565b6000611cd5602683612229565b91507f4f776e61626c653a206e6577206f776e657220697320746865207a65726f206160008301527f64647265737300000000000000000000000000000000000000000000000000006020830152604082019050919050565b6000611d3b603383612229565b91507f4861766520746f207375626d6974206174206c6561737420302e30303120657460008301527f686572206173205253565020616d6f756e742e000000000000000000000000006020830152604082019050919050565b6000611da1602383612229565b91507f596f7520617265206e6f742061206d656d626572206f6620746869732065766560008301527f6e742e00000000000000000000000000000000000000000000000000000000006020830152604082019050919050565b6000611e07601a83612229565b91507f54686973206576656e7420646f6573206e6f742065786973742e0000000000006000830152602082019050919050565b6000611e47602083612229565b91507f4f776e61626c653a2063616c6c6572206973206e6f7420746865206f776e65726000830152602082019050919050565b6000611e87602e83612229565b91507f4f6e6c792064657369676e61746564204f7261636c652063616e2063616c6c2060008301527f746869732066756e6374696f6e2e0000000000000000000000000000000000006020830152604082019050919050565b6000611eed602683612229565b91507f596f7527726520616c72656164792061206d656d626572206f6620746869732060008301527f6576656e742e00000000000000000000000000000000000000000000000000006020830152604082019050919050565b6000611f53601b83612229565b91507f546869732072657175657374206973206e6f742050656e64696e6700000000006000830152602082019050919050565b6000611f93602683612229565b91507f496e7669746572206d7573742062652061206d656d626572206f66207468652060008301527f6576656e742e00000000000000000000000000000000000000000000000000006020830152604082019050919050565b6000611ff9602283612229565b91507f536f6d65206572726f72206f63637572656420696e2063616c63756c6174696f60008301527f6e2e0000000000000000000000000000000000000000000000000000000000006020830152604082019050919050565b61205b8161238d565b82525050565b60006020820190506120766000830184611caa565b92915050565b60006020820190506120916000830184611cb9565b92915050565b600060208201905081810360008301526120b081611cc8565b9050919050565b600060208201905081810360008301526120d081611d2e565b9050919050565b600060208201905081810360008301526120f081611d94565b9050919050565b6000602082019050818103600083015261211081611dfa565b9050919050565b6000602082019050818103600083015261213081611e3a565b9050919050565b6000602082019050818103600083015261215081611e7a565b9050919050565b6000602082019050818103600083015261217081611ee0565b9050919050565b6000602082019050818103600083015261219081611f46565b9050919050565b600060208201905081810360008301526121b081611f86565b9050919050565b600060208201905081810360008301526121d081611fec565b9050919050565b60006040820190506121ec6000830185612052565b6121f96020830184611caa565b9392505050565b60006040820190506122156000830185612052565b6122226020830184612052565b9392505050565b600082825260208201905092915050565b60006122458261238d565b91506122508361238d565b9250827fffffffffffffffffffffffffffffffffffffffffffffffffffffffffffffffff03821115612285576122846123f0565b5b828201905092915050565b600061229b8261238d565b91506122a68361238d565b9250826122b6576122b561241f565b5b828204905092915050565b60006122cc8261238d565b91506122d78361238d565b9250817fffffffffffffffffffffffffffffffffffffffffffffffffffffffffffffffff04831182151516156123105761230f6123f0565b5b828202905092915050565b60006123268261238d565b91506123318361238d565b925082821015612344576123436123f0565b5b828203905092915050565b600061235a8261236d565b9050919050565b60008115159050919050565b600073ffffffffffffffffffffffffffffffffffffffff82169050919050565b6000819050919050565b600063ffffffff82169050919050565b60006123b28261238d565b91507fffffffffffffffffffffffffffffffffffffffffffffffffffffffffffffffff8214156123e5576123e46123f0565b5b600182019050919050565b7f4e487b7100000000000000000000000000000000000000000000000000000000600052601160045260246000fd5b7f4e487b7100000000000000000000000000000000000000000000000000000000600052601260045260246000fd5b6124578161234f565b811461246257600080fd5b50565b61246e8161238d565b811461247957600080fd5b50565b61248581612397565b811461249057600080fd5b5056fea264697066735822122061d46d000854645266c586a6f082a2b8c3676b7269b63f981d6df43962c2672c64736f6c63430008000033",
  "immutableReferences": {},
  "source": "// \"SPDX-License-Identifier: UNLICENSED\"\npragma solidity >=0.4.25;\n\nimport \"../../openzeppelin-contracts/contracts/utils/math/SafeMath.sol\";\nimport \"./OracleRelated.sol\";\n\ncontract EventStake is OracleRelated {\n    // Library usage declarations\n    using SafeMath for uint256;\n\n    // Constructor: @params _oracle is the address of the oracle\n    constructor (address _oracle) {\n        oracleAddress = _oracle;\n        oracleInstance = OracleInterface(oracleAddress);\n    }\n\n    function createAnEvent(uint256 _atTime)\n        external\n        payable\n        override\n        minAmount\n    {\n        uint32 id = oracleInstance.getRandomEventId(_atTime, msg.sender);\n        myReqs[id] = true;\n    }\n\n    // @params referrer - address of person inviting msg.sender to event.\n    // @params Event - It is an id for identifying an event.\n    /* This function may still be vulnerable as any node can read which address\n    includes which event and use that address as referrer, without letting the\n    address know that you've been invited by it. But, we may work on that later. */\n    function addMeToEvent(address referrer, uint256 Event)\n        external\n        payable\n        override\n        minAmount\n    {\n        require(\n            People[referrer][Event].showedUp == attended.False,\n            \"Inviter must be a member of the event.\"\n        );\n        addPersonToEvent(Event);\n    }\n\n    // @dev Common functionality for adding a person to an event.\n    function addPersonToEvent(uint256 Event) internal override {\n        require(\n            People[msg.sender][Event].showedUp == attended.Unset,\n            \"You're already a member of this event.\"\n        );\n        People[msg.sender][Event].showedUp = attended.False;\n        EventToAmountNTime[Event][0] = EventToAmountNTime[Event][0].add(\n            msg.value\n        );\n        EventToMembers[Event].push(msg.sender);\n        People[msg.sender][Event].amount = msg.value;\n    }\n\n    /* @dev Self-affirmation, here, means the person affirms that he\n    has showed up on a particular event. */\n    function selfAffirmation(uint256 Event) external override {\n        require(\n            People[msg.sender][Event].showedUp == attended.False &&\n                block.timestamp >= EventToAmountNTime[Event][1] &&\n                block.timestamp <= (EventToAmountNTime[Event][1] + 3600),\n            \"You are not a member of this event.\"\n        );\n        People[msg.sender][Event].showedUp = attended.True;\n    }\n\n    // DELETE THIS FUNCTION, ONLY FOR DEV\n    // function showBalance() public view returns (uint256) {\n    //     return address(this).balance;\n    // }\n}\n",
  "sourcePath": "/home/preetam/React JS/SoluLab/blockchain/EventStake/contracts/EventStake.sol",
  "compiler": {
    "name": "solc",
    "version": "0.8.0+commit.c7dfd78e.Emscripten.clang"
  },
  "schemaVersion": "3.4.1",
  "updatedAt": "2021-06-02T10:12:43.375Z",
  "networkType": "ethereum",
  "devdoc": {
    "kind": "dev",
    "methods": {
      "owner()": {
        "details": "Returns the address of the current owner."
      },
      "renounceOwnership()": {
        "details": "Leaves the contract without owner. It will not be possible to call `onlyOwner` functions anymore. Can only be called by the current owner. NOTE: Renouncing ownership will leave the contract without an owner, thereby removing any functionality that is only available to the owner."
      },
      "transferOwnership(address)": {
        "details": "Transfers ownership of the contract to a new account (`newOwner`). Can only be called by the current owner."
      }
    },
    "version": 1
  },
  "userdoc": {
    "kind": "user",
    "methods": {},
    "version": 1
  }
}