{
  "contractName": "Oracle",
  "abi": [
    {
      "anonymous": false,
      "inputs": [
        {
          "indexed": false,
          "internalType": "address",
          "name": "asker",
          "type": "address"
        },
        {
          "indexed": false,
          "internalType": "address",
          "name": "eventCreator",
          "type": "address"
        },
        {
          "indexed": false,
          "internalType": "uint32",
          "name": "id",
          "type": "uint32"
        },
        {
          "indexed": false,
          "internalType": "uint256",
          "name": "atTime",
          "type": "uint256"
        }
      ],
      "name": "GetRandomEventIdEvent",
      "type": "event"
    },
    {
      "anonymous": false,
      "inputs": [
        {
          "indexed": true,
          "internalType": "address",
          "name": "previousOwner",
          "type": "address"
        },
        {
          "indexed": true,
          "internalType": "address",
          "name": "newOwner",
          "type": "address"
        }
      ],
      "name": "OwnershipTransferred",
      "type": "event"
    },
    {
      "inputs": [],
      "name": "owner",
      "outputs": [
        {
          "internalType": "address",
          "name": "",
          "type": "address"
        }
      ],
      "stateMutability": "view",
      "type": "function",
      "constant": true
    },
    {
      "inputs": [],
      "name": "renounceOwnership",
      "outputs": [],
      "stateMutability": "nonpayable",
      "type": "function"
    },
    {
      "inputs": [
        {
          "internalType": "address",
          "name": "newOwner",
          "type": "address"
        }
      ],
      "name": "transferOwnership",
      "outputs": [],
      "stateMutability": "nonpayable",
      "type": "function"
    },
    {
      "inputs": [
        {
          "internalType": "uint256",
          "name": "_atTime",
          "type": "uint256"
        },
        {
          "internalType": "address",
          "name": "_creator",
          "type": "address"
        }
      ],
      "name": "getRandomEventId",
      "outputs": [
        {
          "internalType": "uint32",
          "name": "",
          "type": "uint32"
        }
      ],
      "stateMutability": "nonpayable",
      "type": "function"
    },
    {
      "inputs": [
        {
          "internalType": "address",
          "name": "_asker",
          "type": "address"
        },
        {
          "internalType": "address",
          "name": "_creator",
          "type": "address"
        },
        {
          "internalType": "uint32",
          "name": "_id",
          "type": "uint32"
        },
        {
          "internalType": "uint256",
          "name": "_atTime",
          "type": "uint256"
        },
        {
          "internalType": "uint256",
          "name": "_EventId",
          "type": "uint256"
        }
      ],
      "name": "setRandomEventId",
      "outputs": [],
      "stateMutability": "nonpayable",
      "type": "function"
    },
    {
      "inputs": [
        {
          "internalType": "address",
          "name": "_contractAdd",
          "type": "address"
        },
        {
          "internalType": "uint256",
          "name": "_EventId",
          "type": "uint256"
        }
      ],
      "name": "callDistributAmount",
      "outputs": [],
      "stateMutability": "nonpayable",
      "type": "function"
    }
  ],
  "bytecode": "0x608060405260008060146101000a81548163ffffffff021916908363ffffffff16021790555034801561003157600080fd5b5060006100426100e560201b60201c565b9050806000806101000a81548173ffffffffffffffffffffffffffffffffffffffff021916908373ffffffffffffffffffffffffffffffffffffffff1602179055508073ffffffffffffffffffffffffffffffffffffffff16600073ffffffffffffffffffffffffffffffffffffffff167f8be0079c531659141344cd1fd0a4f28419497f9722a3daafe3b4186f6b6457e060405160405180910390a3506100ed565b600033905090565b610d94806100fc6000396000f3fe608060405234801561001057600080fd5b50600436106100625760003560e01c806354f858bb14610067578063715018a6146100835780638da5cb5b1461008d578063d2d74d0d146100ab578063e5dd4243146100c7578063f2fde38b146100f7575b600080fd5b610081600480360381019061007c9190610877565b610113565b005b61008b6102a2565b005b6100956103dc565b6040516100a29190610ae2565b60405180910390f35b6100c560048036038101906100c091906108ee565b610405565b005b6100e160048036038101906100dc9190610953565b610555565b6040516100ee9190610c22565b60405180910390f35b610111600480360381019061010c919061084e565b610649565b005b61011b6107f2565b73ffffffffffffffffffffffffffffffffffffffff166101396103dc565b73ffffffffffffffffffffffffffffffffffffffff161461018f576040517f08c379a000000000000000000000000000000000000000000000000000000000815260040161018690610bc7565b60405180910390fd5b600160008463ffffffff1663ffffffff16815260200190815260200160002060009054906101000a900460ff166101fb576040517f08c379a00000000000000000000000000000000000000000000000000000000081526004016101f290610be7565b60405180910390fd5b8473ffffffffffffffffffffffffffffffffffffffff16631e271ac0858585856040518563ffffffff1660e01b815260040161023a9493929190610b42565b600060405180830381600087803b15801561025457600080fd5b505af1158015610268573d6000803e3d6000fd5b50505050600160008463ffffffff1663ffffffff16815260200190815260200160002060006101000a81549060ff02191690555050505050565b6102aa6107f2565b73ffffffffffffffffffffffffffffffffffffffff166102c86103dc565b73ffffffffffffffffffffffffffffffffffffffff161461031e576040517f08c379a000000000000000000000000000000000000000000000000000000000815260040161031590610bc7565b60405180910390fd5b600073ffffffffffffffffffffffffffffffffffffffff1660008054906101000a900473ffffffffffffffffffffffffffffffffffffffff1673ffffffffffffffffffffffffffffffffffffffff167f8be0079c531659141344cd1fd0a4f28419497f9722a3daafe3b4186f6b6457e060405160405180910390a360008060006101000a81548173ffffffffffffffffffffffffffffffffffffffff021916908373ffffffffffffffffffffffffffffffffffffffff160217905550565b60008060009054906101000a900473ffffffffffffffffffffffffffffffffffffffff16905090565b61040d6107f2565b73ffffffffffffffffffffffffffffffffffffffff1661042b6103dc565b73ffffffffffffffffffffffffffffffffffffffff1614610481576040517f08c379a000000000000000000000000000000000000000000000000000000000815260040161047890610bc7565b60405180910390fd5b60008273ffffffffffffffffffffffffffffffffffffffff166341cc0b94836040518263ffffffff1660e01b81526004016104bc9190610c07565b602060405180830381600087803b1580156104d657600080fd5b505af11580156104ea573d6000803e3d6000fd5b505050506040513d601f19601f8201168201806040525081019061050e919061092a565b905080610550576040517f08c379a000000000000000000000000000000000000000000000000000000000815260040161054790610b87565b60405180910390fd5b505050565b600080601481819054906101000a900463ffffffff168092919061057890610ca6565b91906101000a81548163ffffffff021916908363ffffffff160217905550507f90b5436c54652d6d40f157a2aaec09ac4f6ed156363d86d8604c2c84f5b61f473383600060149054906101000a900463ffffffff16866040516105de9493929190610afd565b60405180910390a160018060008060149054906101000a900463ffffffff1663ffffffff1663ffffffff16815260200190815260200160002060006101000a81548160ff021916908315150217905550600060149054906101000a900463ffffffff16905092915050565b6106516107f2565b73ffffffffffffffffffffffffffffffffffffffff1661066f6103dc565b73ffffffffffffffffffffffffffffffffffffffff16146106c5576040517f08c379a00000000000000000000000000000000000000000000000000000000081526004016106bc90610bc7565b60405180910390fd5b600073ffffffffffffffffffffffffffffffffffffffff168173ffffffffffffffffffffffffffffffffffffffff161415610735576040517f08c379a000000000000000000000000000000000000000000000000000000000815260040161072c90610ba7565b60405180910390fd5b8073ffffffffffffffffffffffffffffffffffffffff1660008054906101000a900473ffffffffffffffffffffffffffffffffffffffff1673ffffffffffffffffffffffffffffffffffffffff167f8be0079c531659141344cd1fd0a4f28419497f9722a3daafe3b4186f6b6457e060405160405180910390a3806000806101000a81548173ffffffffffffffffffffffffffffffffffffffff021916908373ffffffffffffffffffffffffffffffffffffffff16021790555050565b600033905090565b60008135905061080981610d02565b92915050565b60008151905061081e81610d19565b92915050565b60008135905061083381610d30565b92915050565b60008135905061084881610d47565b92915050565b60006020828403121561086057600080fd5b600061086e848285016107fa565b91505092915050565b600080600080600060a0868803121561088f57600080fd5b600061089d888289016107fa565b95505060206108ae888289016107fa565b94505060406108bf88828901610839565b93505060606108d088828901610824565b92505060806108e188828901610824565b9150509295509295909350565b6000806040838503121561090157600080fd5b600061090f858286016107fa565b925050602061092085828601610824565b9150509250929050565b60006020828403121561093c57600080fd5b600061094a8482850161080f565b91505092915050565b6000806040838503121561096657600080fd5b600061097485828601610824565b9250506020610985858286016107fa565b9150509250929050565b61099881610c4e565b82525050565b60006109ab601583610c3d565b91507f536f6d657468696e672057656e742057726f6e672100000000000000000000006000830152602082019050919050565b60006109eb602683610c3d565b91507f4f776e61626c653a206e6577206f776e657220697320746865207a65726f206160008301527f64647265737300000000000000000000000000000000000000000000000000006020830152604082019050919050565b6000610a51602083610c3d565b91507f4f776e61626c653a2063616c6c6572206973206e6f7420746865206f776e65726000830152602082019050919050565b6000610a91601c83610c3d565b91507f546869732072657175657374206973206e6f742070656e64696e672e000000006000830152602082019050919050565b610acd81610c8c565b82525050565b610adc81610c96565b82525050565b6000602082019050610af7600083018461098f565b92915050565b6000608082019050610b12600083018761098f565b610b1f602083018661098f565b610b2c6040830185610ad3565b610b396060830184610ac4565b95945050505050565b6000608082019050610b57600083018761098f565b610b646020830186610ad3565b610b716040830185610ac4565b610b7e6060830184610ac4565b95945050505050565b60006020820190508181036000830152610ba08161099e565b9050919050565b60006020820190508181036000830152610bc0816109de565b9050919050565b60006020820190508181036000830152610be081610a44565b9050919050565b60006020820190508181036000830152610c0081610a84565b9050919050565b6000602082019050610c1c6000830184610ac4565b92915050565b6000602082019050610c376000830184610ad3565b92915050565b600082825260208201905092915050565b6000610c5982610c6c565b9050919050565b60008115159050919050565b600073ffffffffffffffffffffffffffffffffffffffff82169050919050565b6000819050919050565b600063ffffffff82169050919050565b6000610cb182610c96565b915063ffffffff821415610cc857610cc7610cd3565b5b600182019050919050565b7f4e487b7100000000000000000000000000000000000000000000000000000000600052601160045260246000fd5b610d0b81610c4e565b8114610d1657600080fd5b50565b610d2281610c60565b8114610d2d57600080fd5b50565b610d3981610c8c565b8114610d4457600080fd5b50565b610d5081610c96565b8114610d5b57600080fd5b5056fea2646970667358221220a40103f275f08f4f6a06e0989f2ffa9766d115faff00e20786883886a70adc7564736f6c63430008000033",
  "immutableReferences": {},
  "source": "// \"SPDX-License-Identifier: UNLICENSED\"\npragma solidity >=0.4.25;\n\nimport \"../../openzeppelin-contracts/contracts/access/Ownable.sol\";\nimport \"./EventStakeInterface.sol\";\n\n/* This seperate oracle formation may seem a bit overkill for this project,\nbut in long run, it is more scalable as compared to direct integration of these\nfunctions into EventStake Contract. Also, we can make it more decentralised,\nbut won't for the sake of simplicity and lack of need in this project. */\ncontract Oracle is Ownable {\n    // Global Variable Declaration\n    uint32 private randNonce = 0;\n    mapping(uint32 => bool) pendingReqs;\n\n    // Events Declaration\n    event GetRandomEventIdEvent(\n        address asker,\n        address eventCreator,\n        uint32 id,\n        uint256 atTime\n    );\n\n    function getRandomEventId(uint256 _atTime, address _creator)\n        external\n        returns (uint32)\n    {\n        randNonce++;\n        emit GetRandomEventIdEvent(msg.sender, _creator, randNonce, _atTime);\n        pendingReqs[randNonce] = true;\n        return randNonce;\n    }\n\n    function setRandomEventId(\n        address _asker,\n        address _creator,\n        uint32 _id,\n        uint256 _atTime,\n        uint256 _EventId\n    ) public onlyOwner {\n        require(pendingReqs[_id], \"This request is not pending.\");\n        EventStakeInterface(_asker).callback(_creator, _id, _atTime, _EventId);\n        delete pendingReqs[_id];\n    }\n\n    function callDistributAmount(address _contractAdd, uint256 _EventId)\n        public\n        onlyOwner\n    {\n        bool result =\n            EventStakeInterface(_contractAdd).distributeAmount(_EventId);\n        require(result, \"Something Went Wrong!\");\n    }\n}\n",
  "sourcePath": "/home/preetam/React JS/SoluLab/blockchain/EventStake/contracts/Oracle.sol",
  "compiler": {
    "name": "solc",
    "version": "0.8.0+commit.c7dfd78e.Emscripten.clang"
  },
  "schemaVersion": "3.4.1",
  "updatedAt": "2021-06-02T10:12:43.353Z",
  "networkType": "ethereum",
  "devdoc": {
    "kind": "dev",
    "methods": {
      "owner()": {
        "details": "Returns the address of the current owner."
      },
      "renounceOwnership()": {
        "details": "Leaves the contract without owner. It will not be possible to call `onlyOwner` functions anymore. Can only be called by the current owner. NOTE: Renouncing ownership will leave the contract without an owner, thereby removing any functionality that is only available to the owner."
      },
      "transferOwnership(address)": {
        "details": "Transfers ownership of the contract to a new account (`newOwner`). Can only be called by the current owner."
      }
    },
    "version": 1
  },
  "userdoc": {
    "kind": "user",
    "methods": {},
    "version": 1
  }
}